{
  "_format": "hh-sol-artifact-1",
  "contractName": "Verifier",
  "sourceName": "contracts/test-verifier.sol",
  "abi": [
    {
      "inputs": [
        {
          "internalType": "uint256[2]",
          "name": "a",
          "type": "uint256[2]"
        },
        {
          "internalType": "uint256[2][2]",
          "name": "b",
          "type": "uint256[2][2]"
        },
        {
          "internalType": "uint256[2]",
          "name": "c",
          "type": "uint256[2]"
        },
        {
          "internalType": "uint256[19]",
          "name": "input",
          "type": "uint256[19]"
        }
      ],
      "name": "verifyProof",
      "outputs": [
        {
          "internalType": "bool",
          "name": "r",
          "type": "bool"
        }
      ],
      "stateMutability": "view",
      "type": "function"
    }
  ],
  "bytecode": "0x608060405234801561001057600080fd5b50611ac9806100206000396000f3fe608060405234801561001057600080fd5b506004361061002b5760003560e01c8063f3f22e7214610030575b600080fd5b610190600480360361036081101561004757600080fd5b8101908080604001906002806020026040519081016040528092919082600260200280828437600081840152601f19601f82011690508083019250505050505091929192908060800190600280602002604051908101604052809291906000905b828210156100fc578382604002016002806020026040519081016040528092919082600260200280828437600081840152601f19601f820116905080830192505050505050815260200190600101906100a8565b50505050919291929080604001906002806020026040519081016040528092919082600260200280828437600081840152601f19601f82011690508083019250505050505091929192908061026001906013806020026040519081016040528092919082601360200280828437600081840152601f19601f82011690508083019250505050505091929192905050506101aa565b604051808215151515815260200191505060405180910390f35b60006101b4611951565b6040518060400160405280876000600281106101cc57fe5b60200201518152602001876001600281106101e357fe5b60200201518152508160000181905250604051806040016040528060405180604001604052808860006002811061021657fe5b602002015160006002811061022757fe5b602002015181526020018860006002811061023e57fe5b602002015160016002811061024f57fe5b6020020151815250815260200160405180604001604052808860016002811061027457fe5b602002015160006002811061028557fe5b602002015181526020018860016002811061029c57fe5b60200201516001600281106102ad57fe5b602002015181525081525081602001819052506040518060400160405280856000600281106102d857fe5b60200201518152602001856001600281106102ef57fe5b602002015181525081604001819052506060601367ffffffffffffffff8111801561031957600080fd5b506040519080825280602002602001820160405280156103485781602001602082028036833780820191505090505b50905060008090505b60138110156103905784816013811061036657fe5b602002015182828151811061037757fe5b6020026020010181815250508080600101915050610351565b50600061039d82846103bd565b14156103ae576001925050506103b5565b6000925050505b949350505050565b6000807f30644e72e131a029b85045b68181585d2833e84879b9709143e1f593f000000190506103eb611984565b6103f36105f1565b9050806080015151600186510114610473576040517f08c379a00000000000000000000000000000000000000000000000000000000081526004018080602001828103825260128152602001807f76657269666965722d6261642d696e707574000000000000000000000000000081525060200191505060405180910390fd5b61047b6119cb565b6040518060400160405280600081526020016000815250905060008090505b865181101561057a57838782815181106104b057fe5b60200260200101511061052b576040517f08c379a000000000000000000000000000000000000000000000000000000000815260040180806020018281038252601f8152602001807f76657269666965722d6774652d736e61726b2d7363616c61722d6669656c640081525060200191505060405180910390fd5b61056b826105668560800151600185018151811061054557fe5b60200260200101518a858151811061055957fe5b60200260200101516111d4565b6112cf565b9150808060010191505061049a565b5061059d81836080015160008151811061059057fe5b60200260200101516112cf565b90506105d36105af86600001516113e9565b8660200151846000015185602001518587604001518b604001518960600151611483565b6105e357600193505050506105eb565b600093505050505b92915050565b6105f9611984565b60405180604001604052807f2d4d9aa7e302d9df41749d5507949d05dbea33fbb16c643b22f599a2be6df2e281526020017f14bedd503c37ceb061d8ec60209fe345ce89830a19230301f076caff004d19268152508160000181905250604051806040016040528060405180604001604052807f0967032fcbf776d1afc985f88877f182d38480a653f2decaa9794cbc3bf3060c81526020017f0e187847ad4c798374d0d6732bf501847dd68bc0e071241e0213bc7fc13db7ab815250815260200160405180604001604052807f304cfbd1e08a704a99f5e847d93f8c3caafddec46b7a0d379da69a4d112346a781526020017f1739c1b1a457a8c7313123d24d2f9192f896b7c63eea05a9d57f06547ad0cec88152508152508160200181905250604051806040016040528060405180604001604052807f198e9393920d483a7260bfb731fb5d25f1aa493335a9e71297e485b7aef312c281526020017f1800deef121f1e76426a00665e5c4479674322d4f75edadd46debd5cd992f6ed815250815260200160405180604001604052807f090689d0585ff075ec9e99ad690c3395bc4b313370b38ef355acdadcd122975b81526020017f12c85ea5db8c6deb4aab71808dcb408fe3d1e7690c43d37b4ce6cc0166fa7daa8152508152508160400181905250604051806040016040528060405180604001604052807f1f8943c9425d2d4f91fc079c0ddc336970350167de916ae9ee65046300be616d81526020017f2529930c09510c624f24e6bf231981a0171c206767018950b11938213a78aeaf815250815260200160405180604001604052807f2b477ee515325efdc026d99abb1e049b2a7fce925158cc64fc5218fd41c345b481526020017f1a49a59b92316bf02598d210d404a72a7f22cf69f1815b5aa67c7d28a95d04288152508152508160600181905250601467ffffffffffffffff811180156108bd57600080fd5b506040519080825280602002602001820160405280156108f757816020015b6108e46119cb565b8152602001906001900390816108dc5790505b50816080018190525060405180604001604052807f018e3d52e2d70481fd5bdb8987396f8dba7bced19152d7778686d883a720d01a81526020017f1affbea3d44e98baf5d1222d7a67f1ad64ab2d99767aaa73fbcc3a5f8f3727a2815250816080015160008151811061096657fe5b602002602001018190525060405180604001604052807e8acf8d13f681880114fccc7ac01522334db95eefe3a9ff0471524c8caba9cb81526020017f244fc626181399efa98bdc5680e1ee44750e98b796c1fa5d41c2e43f6b55271e81525081608001516001815181106109d657fe5b602002602001018190525060405180604001604052807f1890215797fe52257455601394c09da060c08ae9322c4f928a11580ea5552b6881526020017f1a073622aae9b4a2557401e9f805bb4b7ba64c98b03f56c78d992b867e372f3f8152508160800151600281518110610a4757fe5b602002602001018190525060405180604001604052807f27f5be7fe0d594558b422aa4a7ea844916221dffb6ec6630e94491d29a29b10f81526020017f0e65ddd95d9ab4a16835ef4e8affa2d7427bedd52e80aa736785cb05c1ee221e8152508160800151600381518110610ab857fe5b602002602001018190525060405180604001604052807f241713a1c849ee841ee03b14e41b6382b7a4c2e6c51648b88d777eb6fe458baf81526020017f0455405f1181a90c5b12b99346b0c2b8ae8df2ab49d36a03e95e8123671c9b368152508160800151600481518110610b2957fe5b602002602001018190525060405180604001604052807f11987bb523983a6c2500d0c42c5e6fa5602f1e09bb29f13df17d63ef1cfecf8981526020017f25e6ecdba9ebd6cc7bbe2daff1bf0a87fd9e709d50b91210ece40edafb7dd3498152508160800151600581518110610b9a57fe5b602002602001018190525060405180604001604052807f2bc1178638397fd2e16a7f3488cae080ad0c735a38e319fa8648cc190523385081526020017f0891dfab2f13ddf08048d3fdc2f5fe83a4b4af3847ab492707af83b28acba7b28152508160800151600681518110610c0b57fe5b602002602001018190525060405180604001604052807f20420dbfafa765ee8ea89e035313bb734a5152e103a1c3b9c21b4545ad4ade0981526020017f07215f9271aa868a46db929a4998a9766e8cd37788c5579472ec5b1b03211e7a8152508160800151600781518110610c7c57fe5b602002602001018190525060405180604001604052807f13201c85eead4ab148b9f8a247c71da133744fd6fdaaa6248da73811dbd67e0381526020017f154f654161f6eda33505bef5675a4be9ce0ffcf8ad6ad3dc59e19d81fa8e4a758152508160800151600881518110610ced57fe5b602002602001018190525060405180604001604052807f26d3eb6cf572cd99744af82fb99f8e71316978be0a8da011f20008cf95afbe6a81526020017f2b0175071551af0caf4f537c7022e693e02c75e24359ad57c470e447f7d5c40c8152508160800151600981518110610d5e57fe5b602002602001018190525060405180604001604052807f1d24e0dee8f6bcfec34b839457176c8bb863485ea50b1890f7a1c0ba579875b281526020017f01ac8d9be6362563cba0cb57873c7c9f6547dbfe5c59f6e4d4725399a84f21af8152508160800151600a81518110610dcf57fe5b602002602001018190525060405180604001604052807f1fdbbb975663776ff11b0099f75b00ef6edb8c3b462c4bd82336a35125e98a6681526020017f01cd34ff5fa9ae51c9c94a78211fc9f16d71f735d5375e98b3da8264078275fe8152508160800151600b81518110610e4057fe5b602002602001018190525060405180604001604052807f1ba7f51f4dcc47e5f7891b44a2c046d729ec6270d5e6f861a556e683f8ef5d4c81526020017f111b577a15a0efad297b6888d1d50cd7c248e628e61936af37812985fe7205258152508160800151600c81518110610eb157fe5b602002602001018190525060405180604001604052807f12969d4f6e457a218028d95291de4b07c8d7e9978b61f0a1c213c7741afedcf381526020017e6a6eb6d116ee2e485d2ce0c884a525341c1c04786d794dad18a71382ea04f58152508160800151600d81518110610f2157fe5b602002602001018190525060405180604001604052807ebd19927129ee89391302cc034cbe0ccda5871ff3e1a921884265251722696881526020017f24a851adba129504bf9340187ad64849a520ad87883c26b8a5abe9c8bea308778152508160800151600e81518110610f9157fe5b602002602001018190525060405180604001604052807f111574805dcc6fabbd9d0b82a5f0855e9cf2a388e6008e192d35ebfe6af0d63681526020017f1c8c40e7bf0fbce99df9cfc0c0c4480dbc3898ff606a8cbadf11777dad7243d98152508160800151600f8151811061100257fe5b602002602001018190525060405180604001604052807f10fbdb589a37b9de57c964103301854e016f4b542234f64041b9f82bad926e8281526020017f26a650c15ceb46262580d0994741200275a0ef7ff03e97b6e05d1884d6e885bd815250816080015160108151811061107357fe5b602002602001018190525060405180604001604052807f1bca09b6e201dba6bb1f07f859d2bae49d95200afb387c1a8fa287a8133c471c81526020017f26bdc255022fe87e71a67b2d78e0e812fe3410e6c54303264eb1c3ee5f5d85b781525081608001516011815181106110e457fe5b602002602001018190525060405180604001604052807f2d0727af28aae8c403513be1d2cbe27b77d7236d117bca7f5763f791940f84b281526020017f1cb5328fab371f2fc24ea31340cb15053bfbcb46b6cf2aac2070a133d8b87ef3815250816080015160128151811061115557fe5b602002602001018190525060405180604001604052807f12a2631376cd676129d629c825e5a93ac73c46111ddceb09b27e56d9a93622b481526020017f240384a07edf1b387c34a7a270989678d87bf8c9cccac30754ea3e74af8dca7581525081608001516013815181106111c657fe5b602002602001018190525090565b6111dc6119cb565b6111e46119e5565b8360000151816000600381106111f657fe5b60200201818152505083602001518160016003811061121157fe5b602002018181525050828160026003811061122857fe5b602002018181525050600060608360808460076107d05a03fa9050806000811461125157611253565bfe5b50806112c7576040517f08c379a00000000000000000000000000000000000000000000000000000000081526004018080602001828103825260128152602001807f70616972696e672d6d756c2d6661696c6564000000000000000000000000000081525060200191505060405180910390fd5b505092915050565b6112d76119cb565b6112df611a07565b8360000151816000600481106112f157fe5b60200201818152505083602001518160016004811061130c57fe5b60200201818152505082600001518160026004811061132757fe5b60200201818152505082602001518160036004811061134257fe5b602002018181525050600060608360c08460066107d05a03fa9050806000811461136b5761136d565bfe5b50806113e1576040517f08c379a00000000000000000000000000000000000000000000000000000000081526004018080602001828103825260128152602001807f70616972696e672d6164642d6661696c6564000000000000000000000000000081525060200191505060405180910390fd5b505092915050565b6113f16119cb565b60007f30644e72e131a029b85045b68181585d97816a916871ca8d3c208c16d87cfd4790506000836000015114801561142e575060008360200151145b1561145257604051806040016040528060008152602001600081525091505061147e565b6040518060400160405280846000015181526020018285602001518161147457fe5b0683038152509150505b919050565b60006060600467ffffffffffffffff8111801561149f57600080fd5b506040519080825280602002602001820160405280156114d957816020015b6114c66119cb565b8152602001906001900390816114be5790505b5090506060600467ffffffffffffffff811180156114f657600080fd5b5060405190808252806020026020018201604052801561153057816020015b61151d611a29565b8152602001906001900390816115155790505b5090508a8260008151811061154157fe5b6020026020010181905250888260018151811061155a57fe5b6020026020010181905250868260028151811061157357fe5b6020026020010181905250848260038151811061158c57fe5b602002602001018190525089816000815181106115a557fe5b602002602001018190525087816001815181106115be57fe5b602002602001018190525085816002815181106115d757fe5b602002602001018190525083816003815181106115f057fe5b60200260200101819052506116058282611615565b9250505098975050505050505050565b6000815183511461168e576040517f08c379a00000000000000000000000000000000000000000000000000000000081526004018080602001828103825260168152602001807f70616972696e672d6c656e677468732d6661696c65640000000000000000000081525060200191505060405180910390fd5b600083519050600060068202905060608167ffffffffffffffff811180156116b557600080fd5b506040519080825280602002602001820160405280156116e45781602001602082028036833780820191505090505b50905060008090505b8381101561188a5786818151811061170157fe5b60200260200101516000015182600060068402018151811061171f57fe5b60200260200101818152505086818151811061173757fe5b60200260200101516020015182600160068402018151811061175557fe5b60200260200101818152505085818151811061176d57fe5b60200260200101516000015160006002811061178557fe5b602002015182600260068402018151811061179c57fe5b6020026020010181815250508581815181106117b457fe5b6020026020010151600001516001600281106117cc57fe5b60200201518260036006840201815181106117e357fe5b6020026020010181815250508581815181106117fb57fe5b60200260200101516020015160006002811061181357fe5b602002015182600460068402018151811061182a57fe5b60200260200101818152505085818151811061184257fe5b60200260200101516020015160016002811061185a57fe5b602002015182600560068402018151811061187157fe5b60200260200101818152505080806001019150506116ed565b50611893611a4f565b6000602082602086026020860160086107d05a03fa905080600081146118b8576118ba565bfe5b508061192e576040517f08c379a00000000000000000000000000000000000000000000000000000000081526004018080602001828103825260158152602001807f70616972696e672d6f70636f64652d6661696c6564000000000000000000000081525060200191505060405180910390fd5b60008260006001811061193d57fe5b602002015114159550505050505092915050565b60405180606001604052806119646119cb565b8152602001611971611a29565b815260200161197e6119cb565b81525090565b6040518060a001604052806119976119cb565b81526020016119a4611a29565b81526020016119b1611a29565b81526020016119be611a29565b8152602001606081525090565b604051806040016040528060008152602001600081525090565b6040518060600160405280600390602082028036833780820191505090505090565b6040518060800160405280600490602082028036833780820191505090505090565b6040518060400160405280611a3c611a71565b8152602001611a49611a71565b81525090565b6040518060200160405280600190602082028036833780820191505090505090565b604051806040016040528060029060208202803683378082019150509050509056fea26469706673582212208d93dee189711417d7d48119f7fd6395561db3b8be037c83a5fd240eecd11b7e64736f6c634300060b0033",
  "linkReferences": {},
  "deployedLinkReferences": {}
}